{"abi":[{"type":"constructor","inputs":[{"name":"_asset","type":"address","internalType":"address"}],"stateMutability":"nonpayable"},{"type":"function","name":"asset","inputs":[],"outputs":[{"name":"","type":"address","internalType":"contract IERC20"}],"stateMutability":"view"},{"type":"function","name":"balanceOf","inputs":[{"name":"account","type":"address","internalType":"address"}],"outputs":[{"name":"","type":"uint256","internalType":"uint256"}],"stateMutability":"view"},{"type":"function","name":"balances","inputs":[{"name":"","type":"address","internalType":"address"}],"outputs":[{"name":"","type":"uint256","internalType":"uint256"}],"stateMutability":"view"},{"type":"function","name":"supply","inputs":[{"name":"","type":"address","internalType":"address"},{"name":"amount","type":"uint256","internalType":"uint256"}],"outputs":[],"stateMutability":"nonpayable"},{"type":"function","name":"withdraw","inputs":[{"name":"","type":"address","internalType":"address"},{"name":"amount","type":"uint256","internalType":"uint256"}],"outputs":[],"stateMutability":"nonpayable"},{"type":"event","name":"Supplied","inputs":[{"name":"user","type":"address","indexed":true,"internalType":"address"},{"name":"amount","type":"uint256","indexed":false,"internalType":"uint256"}],"anonymous":false},{"type":"event","name":"Withdrawn","inputs":[{"name":"user","type":"address","indexed":true,"internalType":"address"},{"name":"amount","type":"uint256","indexed":false,"internalType":"uint256"}],"anonymous":false}],"bytecode":{"object":"0x60a060405234801561000f575f5ffd5b50604051610c31380380610c31833981810160405281019061003191906100d0565b60015f819055508073ffffffffffffffffffffffffffffffffffffffff1660808173ffffffffffffffffffffffffffffffffffffffff1681525050506100fb565b5f5ffd5b5f73ffffffffffffffffffffffffffffffffffffffff82169050919050565b5f61009f82610076565b9050919050565b6100af81610095565b81146100b9575f5ffd5b50565b5f815190506100ca816100a6565b92915050565b5f602082840312156100e5576100e4610072565b5b5f6100f2848285016100bc565b91505092915050565b608051610b106101215f395f81816101260152818161021d01526105050152610b105ff3fe608060405234801561000f575f5ffd5b5060043610610055575f3560e01c806327e235e31461005957806338d52e0f1461008957806370a08231146100a7578063f2b9fdb8146100d7578063f3fef3a3146100f3575b5f5ffd5b610073600480360381019061006e9190610694565b61010f565b60405161008091906106d7565b60405180910390f35b610091610124565b60405161009e919061074b565b60405180910390f35b6100c160048036038101906100bc9190610694565b610148565b6040516100ce91906106d7565b60405180910390f35b6100f160048036038101906100ec919061078e565b61018e565b005b61010d6004803603810190610108919061078e565b6103a3565b005b6001602052805f5260405f205f915090505481565b7f000000000000000000000000000000000000000000000000000000000000000081565b5f60015f8373ffffffffffffffffffffffffffffffffffffffff1673ffffffffffffffffffffffffffffffffffffffff1681526020019081526020015f20549050919050565b60025f54036101d2576040517f08c379a00000000000000000000000000000000000000000000000000000000081526004016101c990610826565b60405180910390fd5b60025f819055505f811161021b576040517f08c379a00000000000000000000000000000000000000000000000000000000081526004016102129061088e565b60405180910390fd5b7f000000000000000000000000000000000000000000000000000000000000000073ffffffffffffffffffffffffffffffffffffffff166323b872dd3330846040518463ffffffff1660e01b8152600401610278939291906108bb565b6020604051808303815f875af1158015610294573d5f5f3e3d5ffd5b505050506040513d601f19601f820116820180604052508101906102b89190610925565b6102f7576040517f08c379a00000000000000000000000000000000000000000000000000000000081526004016102ee9061099a565b60405180910390fd5b8060015f3373ffffffffffffffffffffffffffffffffffffffff1673ffffffffffffffffffffffffffffffffffffffff1681526020019081526020015f205f82825461034391906109e5565b925050819055503373ffffffffffffffffffffffffffffffffffffffff167f6473c9f7da8f23a3d810f05b3e8fb3945f0ad17deadcc09e302cdf5d58e48fe78260405161039091906106d7565b60405180910390a260015f819055505050565b60025f54036103e7576040517f08c379a00000000000000000000000000000000000000000000000000000000081526004016103de90610826565b60405180910390fd5b60025f819055505f8111610430576040517f08c379a00000000000000000000000000000000000000000000000000000000081526004016104279061088e565b60405180910390fd5b8060015f3373ffffffffffffffffffffffffffffffffffffffff1673ffffffffffffffffffffffffffffffffffffffff1681526020019081526020015f205410156104b0576040517f08c379a00000000000000000000000000000000000000000000000000000000081526004016104a790610a62565b60405180910390fd5b8060015f3373ffffffffffffffffffffffffffffffffffffffff1673ffffffffffffffffffffffffffffffffffffffff1681526020019081526020015f205f8282546104fc9190610a80565b925050819055507f000000000000000000000000000000000000000000000000000000000000000073ffffffffffffffffffffffffffffffffffffffff1663a9059cbb33836040518363ffffffff1660e01b815260040161055e929190610ab3565b6020604051808303815f875af115801561057a573d5f5f3e3d5ffd5b505050506040513d601f19601f8201168201806040525081019061059e9190610925565b6105dd576040517f08c379a00000000000000000000000000000000000000000000000000000000081526004016105d49061099a565b60405180910390fd5b3373ffffffffffffffffffffffffffffffffffffffff167f7084f5476618d8e60b11ef0d7d3f06914655adb8793e28ff7f018d4c76d505d58260405161062391906106d7565b60405180910390a260015f819055505050565b5f5ffd5b5f73ffffffffffffffffffffffffffffffffffffffff82169050919050565b5f6106638261063a565b9050919050565b61067381610659565b811461067d575f5ffd5b50565b5f8135905061068e8161066a565b92915050565b5f602082840312156106a9576106a8610636565b5b5f6106b684828501610680565b91505092915050565b5f819050919050565b6106d1816106bf565b82525050565b5f6020820190506106ea5f8301846106c8565b92915050565b5f819050919050565b5f61071361070e6107098461063a565b6106f0565b61063a565b9050919050565b5f610724826106f9565b9050919050565b5f6107358261071a565b9050919050565b6107458161072b565b82525050565b5f60208201905061075e5f83018461073c565b92915050565b61076d816106bf565b8114610777575f5ffd5b50565b5f8135905061078881610764565b92915050565b5f5f604083850312156107a4576107a3610636565b5b5f6107b185828601610680565b92505060206107c28582860161077a565b9150509250929050565b5f82825260208201905092915050565b7f5265656e7472616e637947756172643a207265656e7472616e742063616c6c005f82015250565b5f610810601f836107cc565b915061081b826107dc565b602082019050919050565b5f6020820190508181035f83015261083d81610804565b9050919050565b7f416d6f756e74206d757374206265203e203000000000000000000000000000005f82015250565b5f6108786012836107cc565b915061088382610844565b602082019050919050565b5f6020820190508181035f8301526108a58161086c565b9050919050565b6108b581610659565b82525050565b5f6060820190506108ce5f8301866108ac565b6108db60208301856108ac565b6108e860408301846106c8565b949350505050565b5f8115159050919050565b610904816108f0565b811461090e575f5ffd5b50565b5f8151905061091f816108fb565b92915050565b5f6020828403121561093a57610939610636565b5b5f61094784828501610911565b91505092915050565b7f5472616e73666572206661696c656400000000000000000000000000000000005f82015250565b5f610984600f836107cc565b915061098f82610950565b602082019050919050565b5f6020820190508181035f8301526109b181610978565b9050919050565b7f4e487b71000000000000000000000000000000000000000000000000000000005f52601160045260245ffd5b5f6109ef826106bf565b91506109fa836106bf565b9250828201905080821115610a1257610a116109b8565b5b92915050565b7f496e73756666696369656e742062616c616e63650000000000000000000000005f82015250565b5f610a4c6014836107cc565b9150610a5782610a18565b602082019050919050565b5f6020820190508181035f830152610a7981610a40565b9050919050565b5f610a8a826106bf565b9150610a95836106bf565b9250828203905081811115610aad57610aac6109b8565b5b92915050565b5f604082019050610ac65f8301856108ac565b610ad360208301846106c8565b939250505056fea2646970667358221220c27f56afca8024d4632e25ba0db9ceeb1df22484b117c573f40435aa122fe01c64736f6c634300081e0033","linkReferences":{}},"methodIdentifiers":{"asset()":"38d52e0f","balanceOf(address)":"70a08231","balances(address)":"27e235e3","supply(address,uint256)":"f2b9fdb8","withdraw(address,uint256)":"f3fef3a3"},"id":1}