{"abi":[{"type":"constructor","inputs":[{"name":"_asset","type":"address","internalType":"address"}],"stateMutability":"nonpayable"},{"type":"function","name":"asset","inputs":[],"outputs":[{"name":"","type":"address","internalType":"contract IERC20"}],"stateMutability":"view"},{"type":"function","name":"balanceOf","inputs":[{"name":"account","type":"address","internalType":"address"}],"outputs":[{"name":"","type":"uint256","internalType":"uint256"}],"stateMutability":"view"},{"type":"function","name":"balances","inputs":[{"name":"","type":"address","internalType":"address"}],"outputs":[{"name":"","type":"uint256","internalType":"uint256"}],"stateMutability":"view"},{"type":"function","name":"supply","inputs":[{"name":"","type":"address","internalType":"address"},{"name":"amount","type":"uint256","internalType":"uint256"}],"outputs":[],"stateMutability":"nonpayable"},{"type":"function","name":"withdraw","inputs":[{"name":"","type":"address","internalType":"address"},{"name":"amount","type":"uint256","internalType":"uint256"}],"outputs":[],"stateMutability":"nonpayable"},{"type":"event","name":"Supplied","inputs":[{"name":"user","type":"address","indexed":true,"internalType":"address"},{"name":"amount","type":"uint256","indexed":false,"internalType":"uint256"}],"anonymous":false},{"type":"event","name":"Withdrawn","inputs":[{"name":"user","type":"address","indexed":true,"internalType":"address"},{"name":"amount","type":"uint256","indexed":false,"internalType":"uint256"}],"anonymous":false}],"bytecode":{"object":"0x60a060405234801561000f575f5ffd5b50604051610b8c380380610b8c833981810160405281019061003191906100d0565b60015f819055508073ffffffffffffffffffffffffffffffffffffffff1660808173ffffffffffffffffffffffffffffffffffffffff1681525050506100fb565b5f5ffd5b5f73ffffffffffffffffffffffffffffffffffffffff82169050919050565b5f61009f82610076565b9050919050565b6100af81610095565b81146100b9575f5ffd5b50565b5f815190506100ca816100a6565b92915050565b5f602082840312156100e5576100e4610072565b5b5f6100f2848285016100bc565b91505092915050565b608051610a6b6101215f395f81816101260152818161021d01526104f30152610a6b5ff3fe608060405234801561000f575f5ffd5b5060043610610055575f3560e01c806327e235e31461005957806338d52e0f1461008957806370a08231146100a7578063f2b9fdb8146100d7578063f3fef3a3146100f3575b5f5ffd5b610073600480360381019061006e9190610682565b61010f565b60405161008091906106c5565b60405180910390f35b610091610124565b60405161009e9190610739565b60405180910390f35b6100c160048036038101906100bc9190610682565b610148565b6040516100ce91906106c5565b60405180910390f35b6100f160048036038101906100ec919061077c565b61018e565b005b61010d6004803603810190610108919061077c565b61039a565b005b6001602052805f5260405f205f915090505481565b7f000000000000000000000000000000000000000000000000000000000000000081565b5f60015f8373ffffffffffffffffffffffffffffffffffffffff1673ffffffffffffffffffffffffffffffffffffffff1681526020019081526020015f20549050919050565b60025f54036101d2576040517f08c379a00000000000000000000000000000000000000000000000000000000081526004016101c990610814565b60405180910390fd5b60025f819055505f811161021b576040517f08c379a00000000000000000000000000000000000000000000000000000000081526004016102129061087c565b60405180910390fd5b7f000000000000000000000000000000000000000000000000000000000000000073ffffffffffffffffffffffffffffffffffffffff166323b872dd3330846040518463ffffffff1660e01b8152600401610278939291906108a9565b6020604051808303815f875af1158015610294573d5f5f3e3d5ffd5b505050506040513d601f19601f820116820180604052508101906102b89190610913565b6102f7576040517f08c379a00000000000000000000000000000000000000000000000000000000081526004016102ee90610988565b60405180910390fd5b8060015f3373ffffffffffffffffffffffffffffffffffffffff1673ffffffffffffffffffffffffffffffffffffffff1681526020019081526020015f205f82825401925050819055503373ffffffffffffffffffffffffffffffffffffffff167f6473c9f7da8f23a3d810f05b3e8fb3945f0ad17deadcc09e302cdf5d58e48fe78260405161038791906106c5565b60405180910390a260015f819055505050565b60025f54036103de576040517f08c379a00000000000000000000000000000000000000000000000000000000081526004016103d590610814565b60405180910390fd5b60025f819055505f8111610427576040517f08c379a000000000000000000000000000000000000000000000000000000000815260040161041e9061087c565b60405180910390fd5b8060015f3373ffffffffffffffffffffffffffffffffffffffff1673ffffffffffffffffffffffffffffffffffffffff1681526020019081526020015f205410156104a7576040517f08c379a000000000000000000000000000000000000000000000000000000000815260040161049e906109f0565b60405180910390fd5b8060015f3373ffffffffffffffffffffffffffffffffffffffff1673ffffffffffffffffffffffffffffffffffffffff1681526020019081526020015f205f82825403925050819055507f000000000000000000000000000000000000000000000000000000000000000073ffffffffffffffffffffffffffffffffffffffff1663a9059cbb33836040518363ffffffff1660e01b815260040161054c929190610a0e565b6020604051808303815f875af1158015610568573d5f5f3e3d5ffd5b505050506040513d601f19601f8201168201806040525081019061058c9190610913565b6105cb576040517f08c379a00000000000000000000000000000000000000000000000000000000081526004016105c290610988565b60405180910390fd5b3373ffffffffffffffffffffffffffffffffffffffff167f7084f5476618d8e60b11ef0d7d3f06914655adb8793e28ff7f018d4c76d505d58260405161061191906106c5565b60405180910390a260015f819055505050565b5f5ffd5b5f73ffffffffffffffffffffffffffffffffffffffff82169050919050565b5f61065182610628565b9050919050565b61066181610647565b811461066b575f5ffd5b50565b5f8135905061067c81610658565b92915050565b5f6020828403121561069757610696610624565b5b5f6106a48482850161066e565b91505092915050565b5f819050919050565b6106bf816106ad565b82525050565b5f6020820190506106d85f8301846106b6565b92915050565b5f819050919050565b5f6107016106fc6106f784610628565b6106de565b610628565b9050919050565b5f610712826106e7565b9050919050565b5f61072382610708565b9050919050565b61073381610719565b82525050565b5f60208201905061074c5f83018461072a565b92915050565b61075b816106ad565b8114610765575f5ffd5b50565b5f8135905061077681610752565b92915050565b5f5f6040838503121561079257610791610624565b5b5f61079f8582860161066e565b92505060206107b085828601610768565b9150509250929050565b5f82825260208201905092915050565b7f5265656e7472616e637947756172643a207265656e7472616e742063616c6c005f82015250565b5f6107fe601f836107ba565b9150610809826107ca565b602082019050919050565b5f6020820190508181035f83015261082b816107f2565b9050919050565b7f416d6f756e74206d757374206265203e203000000000000000000000000000005f82015250565b5f6108666012836107ba565b915061087182610832565b602082019050919050565b5f6020820190508181035f8301526108938161085a565b9050919050565b6108a381610647565b82525050565b5f6060820190506108bc5f83018661089a565b6108c9602083018561089a565b6108d660408301846106b6565b949350505050565b5f8115159050919050565b6108f2816108de565b81146108fc575f5ffd5b50565b5f8151905061090d816108e9565b92915050565b5f6020828403121561092857610927610624565b5b5f610935848285016108ff565b91505092915050565b7f5472616e73666572206661696c656400000000000000000000000000000000005f82015250565b5f610972600f836107ba565b915061097d8261093e565b602082019050919050565b5f6020820190508181035f83015261099f81610966565b9050919050565b7f496e73756666696369656e742062616c616e63650000000000000000000000005f82015250565b5f6109da6014836107ba565b91506109e5826109a6565b602082019050919050565b5f6020820190508181035f830152610a07816109ce565b9050919050565b5f604082019050610a215f83018561089a565b610a2e60208301846106b6565b939250505056fea2646970667358221220fe1fef812a5be40edec99f2b11a2b4178e978ee170fea10b60da7496adc0e69a64736f6c634300081e0033","linkReferences":{}},"methodIdentifiers":{"asset()":"38d52e0f","balanceOf(address)":"70a08231","balances(address)":"27e235e3","supply(address,uint256)":"f2b9fdb8","withdraw(address,uint256)":"f3fef3a3"},"id":1}