{"abi":[{"type":"constructor","inputs":[{"name":"_asset","type":"address","internalType":"address"}],"stateMutability":"nonpayable"},{"type":"function","name":"asset","inputs":[],"outputs":[{"name":"","type":"address","internalType":"contract IERC20"}],"stateMutability":"view"},{"type":"function","name":"balanceOf","inputs":[{"name":"account","type":"address","internalType":"address"}],"outputs":[{"name":"","type":"uint256","internalType":"uint256"}],"stateMutability":"view"},{"type":"function","name":"balances","inputs":[{"name":"","type":"address","internalType":"address"}],"outputs":[{"name":"","type":"uint256","internalType":"uint256"}],"stateMutability":"view"},{"type":"function","name":"emergencyWithdraw","inputs":[],"outputs":[],"stateMutability":"nonpayable"},{"type":"function","name":"owner","inputs":[],"outputs":[{"name":"","type":"address","internalType":"address"}],"stateMutability":"view"},{"type":"function","name":"supply","inputs":[{"name":"","type":"address","internalType":"address"},{"name":"amount","type":"uint256","internalType":"uint256"}],"outputs":[],"stateMutability":"nonpayable"},{"type":"function","name":"transferOwnership","inputs":[{"name":"newOwner","type":"address","internalType":"address"}],"outputs":[],"stateMutability":"nonpayable"},{"type":"function","name":"withdraw","inputs":[{"name":"","type":"address","internalType":"address"},{"name":"amount","type":"uint256","internalType":"uint256"}],"outputs":[],"stateMutability":"nonpayable"},{"type":"event","name":"OwnershipTransferred","inputs":[{"name":"previousOwner","type":"address","indexed":true,"internalType":"address"},{"name":"newOwner","type":"address","indexed":true,"internalType":"address"}],"anonymous":false},{"type":"event","name":"Supplied","inputs":[{"name":"user","type":"address","indexed":true,"internalType":"address"},{"name":"amount","type":"uint256","indexed":false,"internalType":"uint256"}],"anonymous":false},{"type":"event","name":"Withdrawn","inputs":[{"name":"user","type":"address","indexed":true,"internalType":"address"},{"name":"amount","type":"uint256","indexed":false,"internalType":"uint256"}],"anonymous":false}],"bytecode":{"object":"0x60a060405234801561000f575f5ffd5b5060405161131c38038061131c8339818101604052810190610031919061018b565b60015f819055503360015f6101000a81548173ffffffffffffffffffffffffffffffffffffffff021916908373ffffffffffffffffffffffffffffffffffffffff16021790555060015f9054906101000a900473ffffffffffffffffffffffffffffffffffffffff1673ffffffffffffffffffffffffffffffffffffffff165f73ffffffffffffffffffffffffffffffffffffffff167f8be0079c531659141344cd1fd0a4f28419497f9722a3daafe3b4186f6b6457e060405160405180910390a38073ffffffffffffffffffffffffffffffffffffffff1660808173ffffffffffffffffffffffffffffffffffffffff1681525050506101b6565b5f5ffd5b5f73ffffffffffffffffffffffffffffffffffffffff82169050919050565b5f61015a82610131565b9050919050565b61016a81610150565b8114610174575f5ffd5b50565b5f8151905061018581610161565b92915050565b5f602082840312156101a05761019f61012d565b5b5f6101ad84828501610177565b91505092915050565b6080516111326101ea5f395f818161019b01528181610305015281816103e1015281816105730152610a0401526111325ff3fe608060405234801561000f575f5ffd5b5060043610610086575f3560e01c8063db2e21bc11610059578063db2e21bc14610126578063f2b9fdb814610130578063f2fde38b1461014c578063f3fef3a31461016857610086565b806327e235e31461008a57806338d52e0f146100ba57806370a08231146100d85780638da5cb5b14610108575b5f5ffd5b6100a4600480360381019061009f9190610b93565b610184565b6040516100b19190610bd6565b60405180910390f35b6100c2610199565b6040516100cf9190610c4a565b60405180910390f35b6100f260048036038101906100ed9190610b93565b6101bd565b6040516100ff9190610bd6565b60405180910390f35b610110610203565b60405161011d9190610c72565b60405180910390f35b61012e610228565b005b61014a60048036038101906101459190610cb5565b6104e4565b005b61016660048036038101906101619190610b93565b6106f0565b005b610182600480360381019061017d9190610cb5565b6108ab565b005b6002602052805f5260405f205f915090505481565b7f000000000000000000000000000000000000000000000000000000000000000081565b5f60025f8373ffffffffffffffffffffffffffffffffffffffff1673ffffffffffffffffffffffffffffffffffffffff1681526020019081526020015f20549050919050565b60015f9054906101000a900473ffffffffffffffffffffffffffffffffffffffff1681565b60015f9054906101000a900473ffffffffffffffffffffffffffffffffffffffff1673ffffffffffffffffffffffffffffffffffffffff163373ffffffffffffffffffffffffffffffffffffffff16146102b7576040517f08c379a00000000000000000000000000000000000000000000000000000000081526004016102ae90610d4d565b60405180910390fd5b60025f54036102fb576040517f08c379a00000000000000000000000000000000000000000000000000000000081526004016102f290610db5565b60405180910390fd5b60025f819055505f7f000000000000000000000000000000000000000000000000000000000000000073ffffffffffffffffffffffffffffffffffffffff166370a08231306040518263ffffffff1660e01b815260040161035c9190610c72565b602060405180830381865afa158015610377573d5f5f3e3d5ffd5b505050506040513d601f19601f8201168201806040525081019061039b9190610de7565b90505f81116103df576040517f08c379a00000000000000000000000000000000000000000000000000000000081526004016103d690610e5c565b60405180910390fd5b7f000000000000000000000000000000000000000000000000000000000000000073ffffffffffffffffffffffffffffffffffffffff1663a9059cbb60015f9054906101000a900473ffffffffffffffffffffffffffffffffffffffff16836040518363ffffffff1660e01b815260040161045b929190610e7a565b6020604051808303815f875af1158015610477573d5f5f3e3d5ffd5b505050506040513d601f19601f8201168201806040525081019061049b9190610ed6565b6104da576040517f08c379a00000000000000000000000000000000000000000000000000000000081526004016104d190610f4b565b60405180910390fd5b5060015f81905550565b60025f5403610528576040517f08c379a000000000000000000000000000000000000000000000000000000000815260040161051f90610db5565b60405180910390fd5b60025f819055505f8111610571576040517f08c379a000000000000000000000000000000000000000000000000000000000815260040161056890610fb3565b60405180910390fd5b7f000000000000000000000000000000000000000000000000000000000000000073ffffffffffffffffffffffffffffffffffffffff166323b872dd3330846040518463ffffffff1660e01b81526004016105ce93929190610fd1565b6020604051808303815f875af11580156105ea573d5f5f3e3d5ffd5b505050506040513d601f19601f8201168201806040525081019061060e9190610ed6565b61064d576040517f08c379a000000000000000000000000000000000000000000000000000000000815260040161064490610f4b565b60405180910390fd5b8060025f3373ffffffffffffffffffffffffffffffffffffffff1673ffffffffffffffffffffffffffffffffffffffff1681526020019081526020015f205f82825401925050819055503373ffffffffffffffffffffffffffffffffffffffff167f6473c9f7da8f23a3d810f05b3e8fb3945f0ad17deadcc09e302cdf5d58e48fe7826040516106dd9190610bd6565b60405180910390a260015f819055505050565b60015f9054906101000a900473ffffffffffffffffffffffffffffffffffffffff1673ffffffffffffffffffffffffffffffffffffffff163373ffffffffffffffffffffffffffffffffffffffff161461077f576040517f08c379a000000000000000000000000000000000000000000000000000000000815260040161077690610d4d565b60405180910390fd5b5f73ffffffffffffffffffffffffffffffffffffffff168173ffffffffffffffffffffffffffffffffffffffff16036107ed576040517f08c379a00000000000000000000000000000000000000000000000000000000081526004016107e490611076565b60405180910390fd5b8073ffffffffffffffffffffffffffffffffffffffff1660015f9054906101000a900473ffffffffffffffffffffffffffffffffffffffff1673ffffffffffffffffffffffffffffffffffffffff167f8be0079c531659141344cd1fd0a4f28419497f9722a3daafe3b4186f6b6457e060405160405180910390a38060015f6101000a81548173ffffffffffffffffffffffffffffffffffffffff021916908373ffffffffffffffffffffffffffffffffffffffff16021790555050565b60025f54036108ef576040517f08c379a00000000000000000000000000000000000000000000000000000000081526004016108e690610db5565b60405180910390fd5b60025f819055505f8111610938576040517f08c379a000000000000000000000000000000000000000000000000000000000815260040161092f90610fb3565b60405180910390fd5b8060025f3373ffffffffffffffffffffffffffffffffffffffff1673ffffffffffffffffffffffffffffffffffffffff1681526020019081526020015f205410156109b8576040517f08c379a00000000000000000000000000000000000000000000000000000000081526004016109af906110de565b60405180910390fd5b8060025f3373ffffffffffffffffffffffffffffffffffffffff1673ffffffffffffffffffffffffffffffffffffffff1681526020019081526020015f205f82825403925050819055507f000000000000000000000000000000000000000000000000000000000000000073ffffffffffffffffffffffffffffffffffffffff1663a9059cbb33836040518363ffffffff1660e01b8152600401610a5d929190610e7a565b6020604051808303815f875af1158015610a79573d5f5f3e3d5ffd5b505050506040513d601f19601f82011682018060405250810190610a9d9190610ed6565b610adc576040517f08c379a0000000000000000000000000000000000000000000000000000000008152600401610ad390610f4b565b60405180910390fd5b3373ffffffffffffffffffffffffffffffffffffffff167f7084f5476618d8e60b11ef0d7d3f06914655adb8793e28ff7f018d4c76d505d582604051610b229190610bd6565b60405180910390a260015f819055505050565b5f5ffd5b5f73ffffffffffffffffffffffffffffffffffffffff82169050919050565b5f610b6282610b39565b9050919050565b610b7281610b58565b8114610b7c575f5ffd5b50565b5f81359050610b8d81610b69565b92915050565b5f60208284031215610ba857610ba7610b35565b5b5f610bb584828501610b7f565b91505092915050565b5f819050919050565b610bd081610bbe565b82525050565b5f602082019050610be95f830184610bc7565b92915050565b5f819050919050565b5f610c12610c0d610c0884610b39565b610bef565b610b39565b9050919050565b5f610c2382610bf8565b9050919050565b5f610c3482610c19565b9050919050565b610c4481610c2a565b82525050565b5f602082019050610c5d5f830184610c3b565b92915050565b610c6c81610b58565b82525050565b5f602082019050610c855f830184610c63565b92915050565b610c9481610bbe565b8114610c9e575f5ffd5b50565b5f81359050610caf81610c8b565b92915050565b5f5f60408385031215610ccb57610cca610b35565b5b5f610cd885828601610b7f565b9250506020610ce985828601610ca1565b9150509250929050565b5f82825260208201905092915050565b7f4f776e61626c653a2063616c6c6572206973206e6f7420746865206f776e65725f82015250565b5f610d37602083610cf3565b9150610d4282610d03565b602082019050919050565b5f6020820190508181035f830152610d6481610d2b565b9050919050565b7f5265656e7472616e637947756172643a207265656e7472616e742063616c6c005f82015250565b5f610d9f601f83610cf3565b9150610daa82610d6b565b602082019050919050565b5f6020820190508181035f830152610dcc81610d93565b9050919050565b5f81519050610de181610c8b565b92915050565b5f60208284031215610dfc57610dfb610b35565b5b5f610e0984828501610dd3565b91505092915050565b7f5661756c7420656d7074790000000000000000000000000000000000000000005f82015250565b5f610e46600b83610cf3565b9150610e5182610e12565b602082019050919050565b5f6020820190508181035f830152610e7381610e3a565b9050919050565b5f604082019050610e8d5f830185610c63565b610e9a6020830184610bc7565b9392505050565b5f8115159050919050565b610eb581610ea1565b8114610ebf575f5ffd5b50565b5f81519050610ed081610eac565b92915050565b5f60208284031215610eeb57610eea610b35565b5b5f610ef884828501610ec2565b91505092915050565b7f5472616e73666572206661696c656400000000000000000000000000000000005f82015250565b5f610f35600f83610cf3565b9150610f4082610f01565b602082019050919050565b5f6020820190508181035f830152610f6281610f29565b9050919050565b7f416d6f756e74206d757374206265203e203000000000000000000000000000005f82015250565b5f610f9d601283610cf3565b9150610fa882610f69565b602082019050919050565b5f6020820190508181035f830152610fca81610f91565b9050919050565b5f606082019050610fe45f830186610c63565b610ff16020830185610c63565b610ffe6040830184610bc7565b949350505050565b7f4f776e61626c653a206e6577206f776e657220697320746865207a65726f20615f8201527f6464726573730000000000000000000000000000000000000000000000000000602082015250565b5f611060602683610cf3565b915061106b82611006565b604082019050919050565b5f6020820190508181035f83015261108d81611054565b9050919050565b7f496e73756666696369656e742062616c616e63650000000000000000000000005f82015250565b5f6110c8601483610cf3565b91506110d382611094565b602082019050919050565b5f6020820190508181035f8301526110f5816110bc565b905091905056fea264697066735822122013ebb7b979a45f4f125e9901a0876068c2baeb59259f16f3834fb8ea301f3fd364736f6c634300081e0033","linkReferences":{}},"methodIdentifiers":{"asset()":"38d52e0f","balanceOf(address)":"70a08231","balances(address)":"27e235e3","emergencyWithdraw()":"db2e21bc","owner()":"8da5cb5b","supply(address,uint256)":"f2b9fdb8","transferOwnership(address)":"f2fde38b","withdraw(address,uint256)":"f3fef3a3"},"id":1}